8=FIX.4.4|9=76|35=A|34=1|49=CLIENT2|52=20240612-22:26:36.390|56=EXECUTOR|98=0|108=30|141=Y|10=146|8=FIX.4.4|9=58|35=0|34=2|49=CLIENT2|52=20240612-22:27:06.805|56=EXECUTOR|10=059|8=FIX.4.4|9=58|35=0|34=3|49=CLIENT2|52=20240612-22:27:37.082|56=EXECUTOR|10=061|8=FIX.4.4|9=58|35=0|34=4|49=CLIENT2|52=20240612-22:28:07.381|56=EXECUTOR|10=062|