8=FIX.4.4|9=76|35=A|34=1|49=CLIENT2|52=20240611-01:20:48.637|56=EXECUTOR|98=0|108=30|141=Y|10=143|8=FIX.4.4|9=122|35=D|34=2|49=CLIENT2|52=20240611-01:21:16.677|56=EXECUTOR|11=12|38=2|40=1|44=3|54=1|55=msft|59=0|60=20240610-22:21:12.247|10=222|8=FIX.4.4|9=106|35=3|34=3|49=CLIENT2|52=20240611-01:21:17.548|56=EXECUTOR|45=2|58=Required tag missing|371=37|372=8|373=1|10=001|8=FIX.4.4|9=67|35=1|34=4|49=CLIENT2|52=20240611-01:21:25.608|56=EXECUTOR|112=TEST|10=072|