8=FIX.4.4|9=125|35=D|34=1|49=CLIENT2|52=20240612-02:40:39.042|56=EXECUTOR|11=12|38=1|40=1|44=13|54=1|55=string|59=0|60=20240611-23:40:39.026|10=238|8=FIX.4.4|9=127|35=D|34=2|49=CLIENT2|52=20240612-02:41:00.534|56=EXECUTOR|11=12|38=1|40=1|44=2.31|54=1|55=string|59=0|60=20240611-23:41:00.534|10=069|8=FIX.4.4|9=128|35=D|34=3|49=CLIENT2|52=20240612-02:41:03.977|56=EXECUTOR|11=12|38=1|40=1|44=2.311|54=1|55=string|59=0|60=20240611-23:41:03.977|10=148|8=FIX.4.4|9=127|35=D|34=4|49=CLIENT2|52=20240612-02:43:00.738|56=EXECUTOR|11=12|38=1|40=1|44=2.31|54=2|55=string|59=0|60=20240611-23:43:00.738|10=088|8=FIX.4.4|9=130|35=D|34=5|49=CLIENT2|52=20240612-02:48:50.592|56=EXECUTOR|11=12|38=99999|40=1|44=2.31|54=2|55=VALE3|59=0|60=20240611-23:48:50.580|10=016|